{
  "_format": "hh-sol-artifact-1",
  "contractName": "PatentStorage",
  "sourceName": "contracts/PatentStorage.sol",
  "abi": [
    {
      "inputs": [
        {
          "internalType": "bytes32",
          "name": "",
          "type": "bytes32"
        }
      ],
      "name": "patents",
      "outputs": [
        {
          "internalType": "string",
          "name": "title",
          "type": "string"
        },
        {
          "internalType": "string",
          "name": "description",
          "type": "string"
        },
        {
          "internalType": "string",
          "name": "ipfsHash",
          "type": "string"
        }
      ],
      "stateMutability": "view",
      "type": "function"
    }
  ],
  "bytecode": "0x608060405234801561001057600080fd5b50610408806100206000396000f3fe608060405234801561001057600080fd5b506004361061002b5760003560e01c806368347e1814610030575b600080fd5b61004a6004803603810190610045919061025f565b610062565b60405161005993929190610325565b60405180910390f35b6000602052806000526040600020600091509050806000018054610085906103a0565b80601f01602080910402602001604051908101604052809291908181526020018280546100b1906103a0565b80156100fe5780601f106100d3576101008083540402835291602001916100fe565b820191906000526020600020905b8154815290600101906020018083116100e157829003601f168201915b505050505090806001018054610113906103a0565b80601f016020809104026020016040519081016040528092919081815260200182805461013f906103a0565b801561018c5780601f106101615761010080835404028352916020019161018c565b820191906000526020600020905b81548152906001019060200180831161016f57829003601f168201915b5050505050908060020180546101a1906103a0565b80601f01602080910402602001604051908101604052809291908181526020018280546101cd906103a0565b801561021a5780601f106101ef5761010080835404028352916020019161021a565b820191906000526020600020905b8154815290600101906020018083116101fd57829003601f168201915b5050505050905083565b600080fd5b6000819050919050565b61023c81610229565b811461024757600080fd5b50565b60008135905061025981610233565b92915050565b60006020828403121561027557610274610224565b5b60006102838482850161024a565b91505092915050565b600081519050919050565b600082825260208201905092915050565b60005b838110156102c65780820151818401526020810190506102ab565b838111156102d5576000848401525b50505050565b6000601f19601f8301169050919050565b60006102f78261028c565b6103018185610297565b93506103118185602086016102a8565b61031a816102db565b840191505092915050565b6000606082019050818103600083015261033f81866102ec565b9050818103602083015261035381856102ec565b9050818103604083015261036781846102ec565b9050949350505050565b7f4e487b7100000000000000000000000000000000000000000000000000000000600052602260045260246000fd5b600060028204905060018216806103b857607f821691505b602082108114156103cc576103cb610371565b5b5091905056fea26469706673582212200e4b816e61737860a43b20562827ab2e3c2082521af037999fd92e28587f19ca64736f6c63430008090033",
  "linkReferences": {},
  "deployedLinkReferences": {}
}