{
  "_format": "hh-sol-artifact-1",
  "contractName": "PatentManagement",
  "sourceName": "contracts/PatentManagement.sol",
  "abi": [
    {
      "anonymous": false,
      "inputs": [
        {
          "indexed": false,
          "internalType": "bytes32",
          "name": "patentId",
          "type": "bytes32"
        },
        {
          "indexed": false,
          "internalType": "string",
          "name": "title",
          "type": "string"
        },
        {
          "indexed": false,
          "internalType": "string",
          "name": "description",
          "type": "string"
        },
        {
          "indexed": false,
          "internalType": "string",
          "name": "ipfsHash",
          "type": "string"
        }
      ],
      "name": "PatentStored",
      "type": "event"
    },
    {
      "inputs": [
        {
          "internalType": "address",
          "name": "account",
          "type": "address"
        }
      ],
      "name": "addPatentHolder",
      "outputs": [],
      "stateMutability": "nonpayable",
      "type": "function"
    },
    {
      "inputs": [
        {
          "internalType": "address",
          "name": "account",
          "type": "address"
        }
      ],
      "name": "addPatentOfficer",
      "outputs": [],
      "stateMutability": "nonpayable",
      "type": "function"
    },
    {
      "inputs": [
        {
          "internalType": "string",
          "name": "title",
          "type": "string"
        },
        {
          "internalType": "string",
          "name": "description",
          "type": "string"
        },
        {
          "internalType": "string",
          "name": "ipfsHash",
          "type": "string"
        }
      ],
      "name": "createPatent",
      "outputs": [],
      "stateMutability": "nonpayable",
      "type": "function"
    },
    {
      "inputs": [
        {
          "internalType": "address",
          "name": "",
          "type": "address"
        }
      ],
      "name": "patentHolders",
      "outputs": [
        {
          "internalType": "bool",
          "name": "",
          "type": "bool"
        }
      ],
      "stateMutability": "view",
      "type": "function"
    },
    {
      "inputs": [
        {
          "internalType": "address",
          "name": "",
          "type": "address"
        }
      ],
      "name": "patentOfficers",
      "outputs": [
        {
          "internalType": "bool",
          "name": "",
          "type": "bool"
        }
      ],
      "stateMutability": "view",
      "type": "function"
    },
    {
      "inputs": [
        {
          "internalType": "bytes32",
          "name": "",
          "type": "bytes32"
        }
      ],
      "name": "patents",
      "outputs": [
        {
          "internalType": "string",
          "name": "title",
          "type": "string"
        },
        {
          "internalType": "string",
          "name": "description",
          "type": "string"
        },
        {
          "internalType": "string",
          "name": "ipfsHash",
          "type": "string"
        }
      ],
      "stateMutability": "view",
      "type": "function"
    }
  ],
  "bytecode": "0x608060405234801561001057600080fd5b50610dee806100206000396000f3fe608060405234801561001057600080fd5b50600436106100625760003560e01c80631744afec146100675780634b4b5789146100975780635e380c92146100b357806368347e18146100cf578063897ed337146101015780638e0943381461011d575b600080fd5b610081600480360381019061007c91906107c9565b61014d565b60405161008e9190610811565b60405180910390f35b6100b160048036038101906100ac9190610972565b61016d565b005b6100cd60048036038101906100c891906107c9565b610278565b005b6100e960048036038101906100e49190610a4f565b61035e565b6040516100f893929190610b04565b60405180910390f35b61011b600480360381019061011691906107c9565b610520565b005b610137600480360381019061013291906107c9565b610606565b6040516101449190610811565b60405180910390f35b60016020528060005260406000206000915054906101000a900460ff1681565b6000803373ffffffffffffffffffffffffffffffffffffffff1673ffffffffffffffffffffffffffffffffffffffff16815260200190815260200160002060009054906101000a900460ff166101f8576040517f08c379a00000000000000000000000000000000000000000000000000000000081526004016101ef90610b9c565b60405180910390fd5b6000838383336040516020016102119493929190610c40565b60405160208183030381529060405280519060200120905061023581858585610626565b7f0596381b3dba8b58f3b5e21a321a258966f393ddb888ccc744c6f3dc8b0c205f8185858560405161026a9493929190610c91565b60405180910390a150505050565b600160003373ffffffffffffffffffffffffffffffffffffffff1673ffffffffffffffffffffffffffffffffffffffff16815260200190815260200160002060009054906101000a900460ff16610304576040517f08c379a00000000000000000000000000000000000000000000000000000000081526004016102fb90610d37565b60405180910390fd5b60016000808373ffffffffffffffffffffffffffffffffffffffff1673ffffffffffffffffffffffffffffffffffffffff16815260200190815260200160002060006101000a81548160ff02191690831515021790555050565b600260205280600052604060002060009150905080600001805461038190610d86565b80601f01602080910402602001604051908101604052809291908181526020018280546103ad90610d86565b80156103fa5780601f106103cf576101008083540402835291602001916103fa565b820191906000526020600020905b8154815290600101906020018083116103dd57829003601f168201915b50505050509080600101805461040f90610d86565b80601f016020809104026020016040519081016040528092919081815260200182805461043b90610d86565b80156104885780601f1061045d57610100808354040283529160200191610488565b820191906000526020600020905b81548152906001019060200180831161046b57829003601f168201915b50505050509080600201805461049d90610d86565b80601f01602080910402602001604051908101604052809291908181526020018280546104c990610d86565b80156105165780601f106104eb57610100808354040283529160200191610516565b820191906000526020600020905b8154815290600101906020018083116104f957829003601f168201915b5050505050905083565b600160003373ffffffffffffffffffffffffffffffffffffffff1673ffffffffffffffffffffffffffffffffffffffff16815260200190815260200160002060009054906101000a900460ff166105ac576040517f08c379a00000000000000000000000000000000000000000000000000000000081526004016105a390610d37565b60405180910390fd5b60018060008373ffffffffffffffffffffffffffffffffffffffff1673ffffffffffffffffffffffffffffffffffffffff16815260200190815260200160002060006101000a81548160ff02191690831515021790555050565b60006020528060005260406000206000915054906101000a900460ff1681565b6040518060600160405280848152602001838152602001828152506002600086815260200190815260200160002060008201518160000190805190602001906106709291906106b4565b50602082015181600101908051906020019061068d9291906106b4565b5060408201518160020190805190602001906106aa9291906106b4565b5090505050505050565b8280546106c090610d86565b90600052602060002090601f0160209004810192826106e25760008555610729565b82601f106106fb57805160ff1916838001178555610729565b82800160010185558215610729579182015b8281111561072857825182559160200191906001019061070d565b5b509050610736919061073a565b5090565b5b8082111561075357600081600090555060010161073b565b5090565b6000604051905090565b600080fd5b600080fd5b600073ffffffffffffffffffffffffffffffffffffffff82169050919050565b60006107968261076b565b9050919050565b6107a68161078b565b81146107b157600080fd5b50565b6000813590506107c38161079d565b92915050565b6000602082840312156107df576107de610761565b5b60006107ed848285016107b4565b91505092915050565b60008115159050919050565b61080b816107f6565b82525050565b60006020820190506108266000830184610802565b92915050565b600080fd5b600080fd5b6000601f19601f8301169050919050565b7f4e487b7100000000000000000000000000000000000000000000000000000000600052604160045260246000fd5b61087f82610836565b810181811067ffffffffffffffff8211171561089e5761089d610847565b5b80604052505050565b60006108b1610757565b90506108bd8282610876565b919050565b600067ffffffffffffffff8211156108dd576108dc610847565b5b6108e682610836565b9050602081019050919050565b82818337600083830152505050565b6000610915610910846108c2565b6108a7565b90508281526020810184848401111561093157610930610831565b5b61093c8482856108f3565b509392505050565b600082601f8301126109595761095861082c565b5b8135610969848260208601610902565b91505092915050565b60008060006060848603121561098b5761098a610761565b5b600084013567ffffffffffffffff8111156109a9576109a8610766565b5b6109b586828701610944565b935050602084013567ffffffffffffffff8111156109d6576109d5610766565b5b6109e286828701610944565b925050604084013567ffffffffffffffff811115610a0357610a02610766565b5b610a0f86828701610944565b9150509250925092565b6000819050919050565b610a2c81610a19565b8114610a3757600080fd5b50565b600081359050610a4981610a23565b92915050565b600060208284031215610a6557610a64610761565b5b6000610a7384828501610a3a565b91505092915050565b600081519050919050565b600082825260208201905092915050565b60005b83811015610ab6578082015181840152602081019050610a9b565b83811115610ac5576000848401525b50505050565b6000610ad682610a7c565b610ae08185610a87565b9350610af0818560208601610a98565b610af981610836565b840191505092915050565b60006060820190508181036000830152610b1e8186610acb565b90508181036020830152610b328185610acb565b90508181036040830152610b468184610acb565b9050949350505050565b7f4e6f74206120706174656e7420686f6c64657200000000000000000000000000600082015250565b6000610b86601383610a87565b9150610b9182610b50565b602082019050919050565b60006020820190508181036000830152610bb581610b79565b9050919050565b600081905092915050565b6000610bd282610a7c565b610bdc8185610bbc565b9350610bec818560208601610a98565b80840191505092915050565b60008160601b9050919050565b6000610c1082610bf8565b9050919050565b6000610c2282610c05565b9050919050565b610c3a610c358261078b565b610c17565b82525050565b6000610c4c8287610bc7565b9150610c588286610bc7565b9150610c648285610bc7565b9150610c708284610c29565b60148201915081905095945050505050565b610c8b81610a19565b82525050565b6000608082019050610ca66000830187610c82565b8181036020830152610cb88186610acb565b90508181036040830152610ccc8185610acb565b90508181036060830152610ce08184610acb565b905095945050505050565b7f4e6f74206120706174656e74206f666669636572000000000000000000000000600082015250565b6000610d21601483610a87565b9150610d2c82610ceb565b602082019050919050565b60006020820190508181036000830152610d5081610d14565b9050919050565b7f4e487b7100000000000000000000000000000000000000000000000000000000600052602260045260246000fd5b60006002820490506001821680610d9e57607f821691505b60208210811415610db257610db1610d57565b5b5091905056fea26469706673582212207b8301acdb2c92dc6bd52eb877b67b3661b052588c15c91a353a0fc99f68daac64736f6c63430008090033",
  "linkReferences": {},
  "deployedLinkReferences": {}
}